S0120000414655325F4D6963726F2E73726563AB
S11300000C9434000C9451000C9451000C94510045
S11300100C9451000C9451000C9451000C94510018
S11300200C9451000C9451000C9451000C94B700A2
S11300300C9451000C9451000C9451000C945100F8
S11300400C9451000C9451000C9451000C945100E8
S11300500C9451000C9451000C9451000C945100D8
S11300600C9451000C94510011241FBECFEFD8E022
S1130070DEBFCDBF11E0A0E0B1E0EAEFF3E002C0E3
S113008005900D92AA30B107D9F721E0AAE0B1E0BA
S113009001C01D92A731B207E1F70E948F010C94B1
S11300A0FB010C9400008AB1837E8AB98BB1837EF4
S11300B08BB989B18C7180930B0180930A010895E7
S11300C02FEF80E792E0215080409040E1F700C09C
S11300D0000090910B0189B18C7180930B019827DA
S11300E092FD08C020910A012B7F382F3470232BF6
S11300F020930A0193FD08C020910A01277F382F1D
S11301003870232B20930A0194FD07C090910A01B3
S11301109F7E8071892B80930A01089580910A0142
S11301208695869591E089278170089580910A01CA
S113013086958695869591E08927817008958091AA
S11301400A0182958F7091E08927817008958FEF5D
S113015084B987B18E6187B988B1817E88B90895E1
S1130160EDE0F1E0808361834283238308951F924D
S11301700F920FB60F9211248F939F93EF93FF93D7
S113018088B1817E88B9E0910C01F0E0E35FFE4F15
S1130190E081F0E0E050FF4F808185B980910C014F
S11301A0813051F028F0823059F0833069F00FC06B
S11301B088B1806188B90BC088B1886088B907C0EC
S11301C088B1846088B903C088B1826088B980919D
S11301D00C0190E0019683709078992324F40197A0
S11301E08C6F9F6F019680930C01FF91EF919F910B
S11301F08F910F900FBE0F901F9018951092800052
S11302008AE0809381008FE097E290938900809345
S1130210880082E080936F00089520911501309149
S11302201601369527953695279536952795A5EC8D
S1130230B0E20E94EC01929582958F7089279F709D
S11302408927E1E1F1E080832091150130911601C5
S11302503695279536952795ABE7B4E10E94EC01D6
S1130260AC01569547959A01ADECBCEC0E94EC01AB
S11302709695879596958795969587959C01220FD7
S1130280331F880F991F880F991F880F991F820F9A
S1130290931F9A01281B390B21832091150130915A
S11302A016010E94EC01AC01569547955695479569
S11302B0569547959A010E94EC01969587959695D7
S11302C08795969587959C01220F331F880F991F58
S11302D0880F991F880F991F820F931F9A01281B5B
S11302E0390B228340911501509116019A010E9405
S11302F0EC019695879596958795969587959C019B
S1130300220F331F880F991F880F991F880F991F79
S1130310820F931F9A01281B390B238308950E948F
S1130320A7000E94FE000E94530082ED94E0909387
S11303301601809315010E940D01E1E1F1E0238192
S11303404281618180810E94B00078940E946000A3
S11303500E948E00882391F08091150190911601DE
S11303608F30974248F480911501909116010196BF
S113037090931601809315010E940D010E9496002E
S1130380882389F08091150190911601892B49F0F9
S11303908091150190911601019790931601809315
S11303A015010E940D010E949F00882331F01092D4
S11303B01601109215010E940D01E1E1F1E0238183
S11303C04281618180810E94B0008FE39CE90197A2
S11303D0F1F700C00000BACFA29FB001B39FC001E3
S11303E0A39F700D811D1124911DB29F700D811D5D
S10D03F01124911D0895F894FFCF25
S10D03FAC0F9A4B0999282F8809033
S9030000FC
