:100000000C9434000C9451000C9451000C94510049
:100010000C9451000C9451000C9451000C9451001C
:100020000C9451000C9451000C9451000C94A300BA
:100030000C9451000C9451000C9451000C945100FC
:100040000C9451000C9451000C9451000C945100EC
:100050000C9451000C9451000C9451000C945100DC
:100060000C9451000C94510011241FBECFEFD8E026
:10007000DEBFCDBF11E0A0E0B1E0E0EEF2E002C0F3
:1000800005900D92AC30B107D9F721E0ACE0B1E0BA
:1000900001C01D92A431B207E1F70E9450010C94F7
:1000A0006E010C9400008AB18E6F8AB987B18E619F
:1000B00087B988B1817E88B90895EDE0F1E0808349
:1000C0006183428323830895109280008AE08093A5
:1000D00081008FE097E2909389008093880082E00E
:1000E00080936F000895209100014091000160917C
:1000F0000101309101018DEC289F912D11249695DD
:1001000096959695990F592F550F550F950F291BB9
:10011000489F412D1124469546954695689F912DFF
:100120001124969596959695990F592F550F550F21
:10013000950F691B389F812D11248695869586958C
:100140000E945D0008951F920F920FB60F92112426
:100150002F933F934F935F936F937F938F939F93CF
:10016000AF93BF93EF93FF9388B1817E88B9E091FD
:100170000C01F0E0E35FFE4FE081F0E0EE5FFE4F48
:100180008081880F8BB980910C01813051F028F06B
:10019000823059F0833069F00FC088B1806188B92E
:1001A0000BC088B1886088B907C088B1846088B9FD
:1001B00003C088B1826088B980910C0190E00196FB
:1001C00083709078992324F401978C6F9F6F019628
:1001D00080930C01809111019091120105969093EA
:1001E000120180931101883E934020F11092120178
:1001F000109211018091130181111CC080910001A6
:10020000882331F08091000181508093000110C05B
:1002100080910101882349F08091010181508093F0
:1002200001018BE38093000103C081E080931301FF
:100230000E94730080911301882309F140911101FC
:10024000509112019A01329522952F7023273F7009
:100250002327AEE3BAE00E945F0120E931E0BC0150
:10026000629FC001639F900D729F900D1124481BE7
:10027000590B483C510518F488B1817E88B9FF912B
:10028000EF91BF91AF919F918F917F916F915F910E
:100290004F913F912F910F900FBE0F901F90189587
:1002A0000E9453000E9464008BE3809301018093BD
:1002B0000001109213010E9473007894FFCFA29F57
:1002C000B001B39FC001A39F700D811D1124911D2A
:1002D000B29F700D811D1124911D0895F894FFCFD8
:0C02E0003B3BC0F9A4B0999282F88090DA
:00000001FF
