:100000000C9434000C9451000C9451000C94510049
:100010000C9451000C9451000C9451000C9451001C
:100020000C9451000C9451000C9451000C946300FA
:100030000C9451000C9451000C9451000C945100FC
:100040000C9451000C9451000C9451000C945100EC
:100050000C9451000C9451000C9451000C945100DC
:100060000C9451000C94510011241FBECFEFD8E026
:10007000DEBFCDBF11E0A0E0B1E0EEE8F1E002C0EC
:1000800005900D92AA30B107D9F721E0AAE0B1E0BE
:1000900001C01D92AF30B207E1F70E94B9000C9485
:1000A000C5000C9400008FEF84B987B18E6187B9C9
:1000B00088B1817E88B90895EBE0F1E080836183A7
:1000C0004283238308951F920F920FB60F9211243B
:1000D0008F939F93EF93FF9388B1817E88B9E091CE
:1000E0000A01F0E0E55FFE4FE081F0E0E050FF4FF5
:1000F000808185B980910A01813051F028F08230E9
:1001000059F0833069F00FC088B1806188B90BC0A5
:1001100088B1886088B907C088B1846088B903C095
:1001200088B1826088B980910A0190E0019683705D
:100130009078992324F401978C6F9F6F0196809398
:100140000A01FF91EF919F918F910F900FBE0F9039
:100150001F901895109280008AE0809381008FE0B4
:1001600097E2909389008093880082E080936F00EB
:1001700008950E9453000E94AA0024E043E062E038
:0E01800081E00E945C007894FFCFF894FFCFDE
:0A018E00C0F9A4B0999282F88090A5
:00000001FF
