:100000000C9434000C9451000C9451000C94510049
:100010000C9451000C9451000C9451000C9451001C
:100020000C9451000C9451000C9451000C94AB00B2
:100030000C9451000C9451000C940A010C94510042
:100040000C9451000C9451000C9451000C945100EC
:100050000C9451000C9451000C9451000C945100DC
:100060000C9451000C94510011241FBECFEFD8E026
:10007000DEBFCDBF11E0A0E0B1E0EEE8F5E002C0E8
:1000800005900D92AE32B107D9F721E0AEE2B1E0B2
:1000900001C01D92AC33B207E1F70E94A4010C9499
:1000A000C5020C9400008AB18C7F8AB98BB18C7F19
:1000B0008BB983B1837080932F0180932E010895B3
:1000C0002FEF89E698E1215080409040E1F700C091
:1000D000000090912F0183B1837080932F019827A6
:1000E00090FD08C020912E012E7F382F3170232BD8
:1000F00020932E0191FD07C090912E019D7F82706B
:10010000892B80932E01089590912E0181E08927FB
:100110008170089580912E01869591E089278170E4
:1001200008958FEF8AB987B18E6187B988B1817ED2
:1001300088B9089598B1917E98B91BB8EFE3FFE1B3
:100140003197F1F700C00000E1E3F1E080836183C3
:100150004283238308951F920F920FB60F921124AA
:100160008F939F93EF93FF9388B1817E88B9E0913D
:100170003001F0E0EF5CFE4FE081F0E0EC5DFE4F1F
:1001800080818BB980913001813051F028F082302C
:1001900059F0833069F00FC088B1826088B90BC014
:1001A00088B1846088B907C088B1886088B903C005
:1001B00088B1806188B98091300190E001968370A8
:1001C0009078992324F401978C6F9F6F0196809308
:1001D0003001FF91EF919F918F910F900FBE0F9083
:1001E0001F901895109280008AE0809381008FE024
:1001F00097E2909389008093880082E080936F005B
:10020000089582E084BD99EF97BD93E095BD8093FA
:100210006E0008951F920F920FB60F9211242F9324
:100220008F939F938091370190913801019690931D
:100230003801809337018091370190913801883ED1
:10024000934038F0109238011092370181E080938A
:1002500036019F918F912F910F900FBE0F901F909D
:100260001895CF92DF92EF92FF920F931F93CF9347
:10027000DF938B016C01E12CF12CA7019601220F79
:10028000331F441F551F60E074E284EF90E00E942A
:100290007502DA01C901B695A79597958795B69528
:1002A000A79597958795EC01D801A70196010E9423
:1002B000970228EE33E040E050E00E947502890189
:1002C0009A0140E050E0BA0110C088B1816088B95D
:1002D000CE010197F1F788B18E7F88B9CE010197E1
:1002E000F1F74F5F5F4F6F4F7F4F40175107620726
:1002F000730758F3DF91CF911F910F91FF90EF900B
:10030000DF90CF900895CF93C0E01AC08C2F90E07B
:10031000880F991FFC01E050FF4F60817181FC0143
:10032000EE5EFE4F808191810E9431012FEF80E7C8
:1003300092E0215080409040E1F700C00000CF5F84
:10034000C93020F3CF91089587B1816087B988B112
:100350008E7F88B9F8940E9491000E94F2000E945A
:1003600053000E94010110923B0178940E946000AA
:1003700080913B01813099F120F0823009F454C022
:1003800070C00E948400882351F00E948A00882354
:1003900031F081E080933B01109236011DC00E9434
:1003A0008400882359F08091390190E001966CE334
:1003B00070E00E946102809339010EC00E948A00A1
:1003C000882351F080913A0190E001966CE370E04F
:1003D0000E94610280933A011092350142C08091DF
:1003E00036018823F1F11092360180913A01811192
:1003F00008C080913901811104C082E080933B01E3
:1004000030C080913901882331F0809139018150C9
:100410008093390126C08BE38093390180913A01A2
:10042000815080933A011DC080913501811108C02F
:100430000E94830181E08093350188B1816088B991
:100440000E948400811104C00E948A00882349F020
:1004500088B18E7F88B91092390110923A011092BA
:100460003B01209139014091390160913A0130916D
:100470003A018DEC289F912D11249695969596958D
:10048000990F592F550F550F950F291B489F412D37
:100490001124469546954695689F912D1124969571
:1004A00096959695990F592F550F550F950F691BD6
:1004B000389F812D11248695869586950E949A00F5
:1004C00055CF97FB072E16F4009407D077FD09D07F
:1004D0000E94A20207FC05D03EF4909581959F4FA3
:1004E0000895709561957F4F0895A1E21A2EAA1B79
:1004F000BB1BFD010DC0AA1FBB1FEE1FFF1FA217D4
:10050000B307E407F50720F0A21BB30BE40BF50BD0
:10051000661F771F881F991F1A9469F76095709559
:10052000809590959B01AC01BD01CF0108950E947B
:10053000B602A59F900DB49F900DA49F800D911DB4
:1005400011240895AA1BBB1B51E107C0AA1FBB1FA2
:10055000A617B70710F0A61BB70B881F991F5A954F
:10056000A9F780959095BC01CD010895A29FB00197
:10057000B39FC001A39F700D811D1124911DB29FD7
:0E058000700D811D1124911D0895F894FFCF78
:10058E00C800C800C800C8009001C800C800C80054
:10059E00900193026E0293026E029302EE014B02E1
:0E05AE000B02B8017E0CB69ECCDAFA0EFEDE11
:00000001FF
