:100000000C9434000C9451000C9451000C94510049
:100010000C9451000C9451000C9451000C9451001C
:100020000C9451000C9451000C9451000C94A200BB
:100030000C9451000C9451000C9451000C945100FC
:100040000C9451000C9451000C9451000C945100EC
:100050000C9451000C9451000C9451000C945100DC
:100060000C9451000C94510011241FBECFEFD8E026
:10007000DEBFCDBF11E0A0E0B1E0E4E7F2E002C0F6
:1000800005900D92AA30B107D9F721E0AAE0B1E0BE
:1000900001C01D92A431B207E1F70E9430010C9417
:1000A00038010C9400008FEF84B987B18E6187B955
:1000B00088B1817E88B90895EBE0F1E080836183A7
:1000C000428323830895109280008AE08093810008
:1000D0008FE097E2909389008093880082E080937C
:1000E0006F00089520911201409112016091130157
:1000F000309113018DEC289F912D112496959695A2
:100100009695990F592F550F550F950F291B489FFD
:10011000412D1124469546954695689F912D1124B1
:10012000969596959695990F592F550F550F950FB2
:10013000691B389F812D11248695869586950E948E
:100140005C0008951F920F920FB60F9211242F9307
:100150003F934F935F936F937F938F939F93AF934F
:10016000BF93EF93FF9388B1817E88B9E0910A0134
:10017000F0E0E55FFE4FE081F0E0E050FF4F80816E
:1001800085B980910A01813051F028F0823059F010
:10019000833069F00FC088B1806188B90BC088B125
:1001A000886088B907C088B1846088B903C088B105
:1001B000826088B980910A0190E0019683709078FE
:1001C000992324F401978C6F9F6F019680930A0105
:1001D00080910F01909110010596909310018093EA
:1001E0000F0180910F0190911001883E934038F1EA
:1001F0001092100110920F01809111018F5F809376
:100200001101809111018C33C0F010921101809185
:1002100012018F5F80931201809112018C3368F07C
:1002200010921201809113018F5F809313018091CE
:100230001301883110F0109213010E947200FF9197
:10024000EF91BF91AF919F918F917F916F915F914E
:100250004F913F912F910F900FBE0F901F901895C7
:100260000E9453000E9463000E9472007894FFCFA6
:04027000F894FFCF30
:0A027400C0F9A4B0999282F88090BE
:00000001FF
