:100000000C9434000C9451000C9451000C94510049
:100010000C9451000C9451000C9451000C9451001C
:100020000C9451000C9451000C9451000C946D00F0
:100030000C9451000C9451000C9451000C945100FC
:100040000C9451000C9451000C9451000C945100EC
:100050000C9451000C9451000C9451000C945100DC
:100060000C9451000C94510011241FBECFEFD8E026
:10007000DEBFCDBF11E0A0E0B1E0EAE4F2E002C0F3
:1000800005900D92AA30B107D9F721E0AAE0B1E0BE
:1000900001C01D92AF30B207E1F70E94C3000C947B
:1000A00023010C9400008FEF8AB987B18E6187B964
:1000B00088B1817E88B9089598B1917E98B91BB8AE
:1000C000EFE3FFE13197F1F700C00000EBE0F1E072
:1000D000808361834283238308951F920F920FB61A
:1000E0000F9211248F939F93EF93FF9388B1817E9A
:1000F00088B9E0910A01F0E0E55FFE4FE081F0E0B1
:10010000E050FF4F80818BB980910A01813051F01E
:1001100028F0823059F0833069F00FC088B18260D6
:1001200088B90BC088B1846088B907C088B188607D
:1001300088B903C088B1806188B980910A0190E0D4
:10014000019683709078992324F401978C6F9F6FA8
:10015000019680930A01FF91EF919F918F910F90EB
:100160000FBE0F901F901895109280008AE0809328
:1001700081008FE097E2909389008093880082E06D
:1001800080936F0008950E9453000E94B4007894F9
:1001900020E040E060E080E00E945C002FEF83ED13
:1001A00090E3215080409040E1F700C0000021E042
:1001B00041E061E081E00E945C002FEF83ED90E37D
:1001C000215080409040E1F700C0000022E042E072
:1001D00062E082E00E945C002FEF83ED90E321500B
:1001E00080409040E1F700C0000023E043E063E07E
:1001F00083E00E945C002FEF83ED90E3215080406C
:100200009040E1F700C0000024E044E064E084E0B6
:100210000E945C002FEF83ED90E3215080409040DE
:10022000E1F700C0000025E045E065E085E00E94C0
:100230005C002FEF83ED90E3215080409040E1F788
:0A02400000C00000B4CFF894FFCF17
:0A024A007E0CB69ECCDAFA0EFEDE42
:00000001FF
